{
  "contractName": "SquareVerifier",
  "abi": [
    {
      "constant": false,
      "inputs": [
        {
          "name": "a",
          "type": "uint256[2]"
        },
        {
          "name": "b",
          "type": "uint256[2][2]"
        },
        {
          "name": "c",
          "type": "uint256[2]"
        },
        {
          "name": "input",
          "type": "uint256[2]"
        }
      ],
      "name": "verifyTx",
      "outputs": [
        {
          "name": "r",
          "type": "bool"
        }
      ],
      "payable": false,
      "stateMutability": "nonpayable",
      "type": "function"
    },
    {
      "anonymous": false,
      "inputs": [
        {
          "indexed": false,
          "name": "s",
          "type": "string"
        }
      ],
      "name": "Verified",
      "type": "event"
    }
  ],
  "bytecode": "0x608060405234801561001057600080fd5b506110f5806100206000396000f3fe608060405234801561001057600080fd5b506004361061002b5760003560e01c8063621e9ec014610030575b600080fd5b61018f600480360361014081101561004757600080fd5b8101908080604001906002806020026040519081016040528092919082600260200280828437600081840152601f19601f82011690508083019250505050505091929192908060800190600280602002604051908101604052809291906000905b828210156100fc578382604002016002806020026040519081016040528092919082600260200280828437600081840152601f19601f820116905080830192505050505050815260200190600101906100a8565b50505050919291929080604001906002806020026040519081016040528092919082600260200280828437600081840152601f19601f820116905080830192505050505050919291929080604001906002806020026040519081016040528092919082600260200280828437600081840152601f19601f82011690508083019250505050505091929192905050506101a9565b604051808215151515815260200191505060405180910390f35b60006101b3610f49565b6040518060400160405280876000600281106101cb57fe5b60200201518152602001876001600281106101e257fe5b60200201518152508160000181905250604051806040016040528060405180604001604052808860006002811061021557fe5b602002015160006002811061022657fe5b602002015181526020018860006002811061023d57fe5b602002015160016002811061024e57fe5b6020020151815250815260200160405180604001604052808860016002811061027357fe5b602002015160006002811061028457fe5b602002015181526020018860016002811061029b57fe5b60200201516001600281106102ac57fe5b602002015181525081525081602001819052506040518060400160405280856000600281106102d757fe5b60200201518152602001856001600281106102ee57fe5b60200201518152508160400181905250606060026040519080825280602002602001820160405280156103305781602001602082028038833980820191505090505b50905060008090505b60028110156103785784816002811061034e57fe5b602002015182828151811061035f57fe5b6020026020010181815250508080600101915050610339565b50600061038582846103f0565b14156103e1577f3f3cfdb26fb5f9f1786ab4f1a1f9cd4c0b5e726cbdfc26e495261731aad44e396040518080602001828103825260228152602001806110a86022913960400191505060405180910390a16001925050506103e8565b6000925050505b949350505050565b6000807f30644e72e131a029b85045b68181585d2833e84879b9709143e1f593f0000001905061041e610f7d565b610426610562565b905080608001515160018651011461043d57600080fd5b610445610fc5565b6040518060400160405280600081526020016000815250905060008090505b86518110156104db578387828151811061047a57fe5b60200260200101511061048c57600080fd5b6104cc826104c7856080015160018501815181106104a657fe5b60200260200101518a85815181106104ba57fe5b60200260200101516109af565b610a43565b91508080600101915050610464565b506104fe8183608001516000815181106104f157fe5b6020026020010151610a43565b90506105448560000151866020015161051684610af6565b85604001516105288a60400151610af6565b876060015161053a8960000151610af6565b8960200151610b90565b610554576001935050505061055c565b600093505050505b92915050565b61056a610f7d565b60405180604001604052807f21dd6cef859f949956a42159ef2f245bca3b27f0b8a0496caa92940bea32260081526020017f13bf21e5c58b5462f96c1274c992228b0ba50313e377a60a5766bd02154f69ac8152508160000181905250604051806040016040528060405180604001604052807f0a69c6577feadb33eecf6c47f8d8bc16d08ea797bbd7a2447ee200a961df739281526020017f15d1b33ed5435fe6e2d462fd63b5242b0a5c1aeeef32d4b547aa9986eb480829815250815260200160405180604001604052807f22c1cae043d97dfe95f0a1be26eb63aef19f7248da66d7b675a0b6bcd5dbbff881526020017f2c30c46de922a27bd93a067d7e48d011381c91bc98676bd9c22deb21b9e5755e8152508152508160200181905250604051806040016040528060405180604001604052807f17a63f2551ca0ceac9ef5d5a21d35eddc1a4126182d42a6bc3a98c8c938cfc5b81526020017f27628c2697ee6e52b81c46aebaf61e33e586e7db44099ac714632ccf4cf2e1ee815250815260200160405180604001604052807f2d5466967b28dbd4d107fc74894530cd1838bbb1bbef93f2dd39fdc8c865cd1181526020017f1a3801d00242c7708e954f47f554a5a3b1a0c6a21bcfe561968b6e6b032356c28152508152508160400181905250604051806040016040528060405180604001604052807f2bd0b19a673af42c712149138252882a18068607cf7a270a289d6122fa8ad02a81526020017f0d9aeec430c8196af64a5d12fd111a95c9548db5abb6f4ba42ae5c004cf62d7d815250815260200160405180604001604052807f1490b3bb918bdc995d60a21f457c841508e72e6a1ee8da61eaaf28979b86f38a81526020017f05e0eeb7568e5b64d1885ed0432999b4e941fef4ae5ab1b10d864ef66da199a08152508152508160600181905250600360405190808252806020026020018201604052801561085157816020015b61083e610fdf565b8152602001906001900390816108365790505b50816080018190525060405180604001604052807f2cbc3faa9a49e2fde794ce39b3781829344aa1d6de5ff0aff210d2f9c0126f0981526020017f24e82f1f4a6f3bc4df38517502f5139a69e32b88b53bbce8365b868584c9059881525081608001516000815181106108c057fe5b602002602001018190525060405180604001604052807f28d2301c7c60dcbbc49d5ae2be4650d93e57e256f13667e36c0bc4b7f897978281526020017f08891bfd6cfd0c22948a74ea9c65def3bcc766703b7ef8c8638f8456ccd0a824815250816080015160018151811061093157fe5b602002602001018190525060405180604001604052807e1eef6ef1fb38c0adabd3786c4190e2a58ebe046e3ec0e653512f89cdefc1f781526020017f0aa39d0760927946d3b72a166af8e1634d0d30037f41e2b91b3a3002728f223181525081608001516002815181106109a157fe5b602002602001018190525090565b6109b7610fc5565b6109bf610ff9565b8360000151816000600381106109d157fe5b6020020181815250508360200151816001600381106109ec57fe5b6020020181815250508281600260038110610a0357fe5b6020020181815250506000606083608084600060076107d05a03f190508060008114610a2e57610a30565bfe5b5080610a3b57600080fd5b505092915050565b610a4b610fc5565b610a5361101b565b836000015181600060048110610a6557fe5b602002018181525050836020015181600160048110610a8057fe5b602002018181525050826000015181600260048110610a9b57fe5b602002018181525050826020015181600360048110610ab657fe5b602002018181525050600060608360c084600060066107d05a03f190508060008114610ae157610ae3565bfe5b5080610aee57600080fd5b505092915050565b610afe610fc5565b60007f30644e72e131a029b85045b68181585d97816a916871ca8d3c208c16d87cfd47905060008360000151148015610b3b575060008360200151145b15610b5f576040518060400160405280600081526020016000815250915050610b8b565b60405180604001604052808460000151815260200182856020015181610b8157fe5b0683038152509150505b919050565b600060606004604051908082528060200260200182016040528015610bcf57816020015b610bbc610fdf565b815260200190600190039081610bb45790505b50905060606004604051908082528060200260200182016040528015610c0f57816020015b610bfc61103d565b815260200190600190039081610bf45790505b5090508a82600081518110610c2057fe5b60200260200101819052508882600181518110610c3957fe5b60200260200101819052508682600281518110610c5257fe5b60200260200101819052508482600381518110610c6b57fe5b60200260200101819052508981600081518110610c8457fe5b60200260200101819052508781600181518110610c9d57fe5b60200260200101819052508581600281518110610cb657fe5b60200260200101819052508381600381518110610ccf57fe5b6020026020010181905250610ce48282610cf4565b9250505098975050505050505050565b60008151835114610d0457600080fd5b6000835190506000600682029050606081604051908082528060200260200182016040528015610d435781602001602082028038833980820191505090505b50905060008090505b83811015610ee957868181518110610d6057fe5b602002602001015160000151826000600684020181518110610d7e57fe5b602002602001018181525050868181518110610d9657fe5b602002602001015160200151826001600684020181518110610db457fe5b602002602001018181525050858181518110610dcc57fe5b602002602001015160000151600060028110610de457fe5b6020020151826002600684020181518110610dfb57fe5b602002602001018181525050858181518110610e1357fe5b602002602001015160000151600160028110610e2b57fe5b6020020151826003600684020181518110610e4257fe5b602002602001018181525050858181518110610e5a57fe5b602002602001015160200151600060028110610e7257fe5b6020020151826004600684020181518110610e8957fe5b602002602001018181525050858181518110610ea157fe5b602002602001015160200151600160028110610eb957fe5b6020020151826005600684020181518110610ed057fe5b6020026020010181815250508080600101915050610d4c565b50610ef2611063565b60006020826020860260208601600060086107d05a03f190508060008114610f1957610f1b565bfe5b5080610f2657600080fd5b600082600060018110610f3557fe5b602002015114159550505050505092915050565b604051806101000160405280610f5d610fdf565b8152602001610f6a61103d565b8152602001610f77610fdf565b81525090565b604051806101e00160405280610f91610fdf565b8152602001610f9e61103d565b8152602001610fab61103d565b8152602001610fb861103d565b8152602001606081525090565b604051806040016040528060008152602001600081525090565b604051806040016040528060008152602001600081525090565b6040518060600160405280600390602082028038833980820191505090505090565b6040518060800160405280600490602082028038833980820191505090505090565b6040518060800160405280611050611085565b815260200161105d611085565b81525090565b6040518060200160405280600190602082028038833980820191505090505090565b604051806040016040528060029060208202803883398082019150509050509056fe5472616e73616374696f6e207375636365737366756c6c792076657269666965642ea165627a7a723058208394549400b94f2040b5241bb9af9f6fda8a0304346aac1965c3dc9aba1247cd0029",
  "source": "pragma solidity >=0.4.21 <0.6.0;\r\n\r\nimport \"./ERC721Mintable.sol\";\r\nimport \"./SquareVerifier.sol\";\r\n\r\n// TODO define a contract call to the zokrates generated solidity contract <Verifier> or <renamedVerifier>\r\ncontract SquareVerifier is Verifier {\r\n\r\n}\r\n\r\n// TODO define another contract named SolnSquareVerifier that inherits from your ERC721Mintable class\r\ncontract SolnSquareVerifier is CustomERC721Token {\r\n\r\n    SquareVerifier public verifier;\r\n\r\n    // TODO define a solutions struct that can hold an index & an address\r\n    struct Solution {\r\n        uint256 tokenId;\r\n        address owner;\r\n    }\r\n\r\n    // TODO define an array of the above struct\r\n    Solution[] solutions;\r\n\r\n    // TODO define a mapping to store unique solutions submitted\r\n    mapping(bytes32 => Solution) private uniqueSolutions;\r\n\r\n    // TODO Create an event to emit when a solution is added\r\n    event SolutionAdded(uint256 tokenId, address owner);\r\n\r\n    // TODO Create a function to add the solutions to the array and emit the event\r\n    function addSolution(uint256 tokenId, address owner, bytes32 key) public {\r\n        Solution memory solution = Solution({tokenId: tokenId, owner: owner});\r\n        solutions.push(solution);\r\n        uniqueSolutions[key] = solution;\r\n        emit SolutionAdded(tokenId, owner);\r\n    }\r\n\r\n    // TODO Create a function to mint new NFT only after the solution has been verified\r\n    //  - make sure the solution is unique (has not been used before)\r\n    //  - make sure you handle metadata as well as tokenSuplly\r\n    function mintNewToken(\r\n                uint tokenId,\r\n                address owner,\r\n                uint[2] memory a,\r\n                uint[2][2] memory b,\r\n                uint[2] memory c,\r\n                uint[2] memory input) public\r\n    {\r\n        bytes32 key = keccak256(abi.encodePacked(a, b, c, input));\r\n        require(uniqueSolutions[key].owner == address(0), \"Solution has already been used\");\r\n        require(verifier.verifyTx(a, b, c, input), \"Solution verification failed\");\r\n        addSolution(tokenId, owner, key);\r\n        super.mint(owner, tokenId);\r\n    }\r\n\r\n}",
  "sourcePath": "C:/Users/Carlos/OneDrive/Documentos/Blockchain-Capstone/eth-contracts/contracts/SolnSquareVerifier.sol",
  "compiler": {
    "name": "solc",
    "version": "0.5.8+commit.23d335f2.Emscripten.clang"
  },
  "schemaVersion": "3.0.16",
  "updatedAt": "2019-09-24T02:00:35.031Z",
  "devdoc": {
    "methods": {}
  },
  "userdoc": {
    "methods": {}
  }
}