{
  "contractName": "SquareVerifier",
  "abi": [
    {
      "constant": false,
      "inputs": [
        {
          "name": "a",
          "type": "uint256[2]"
        },
        {
          "name": "a_p",
          "type": "uint256[2]"
        },
        {
          "name": "b",
          "type": "uint256[2][2]"
        },
        {
          "name": "b_p",
          "type": "uint256[2]"
        },
        {
          "name": "c",
          "type": "uint256[2]"
        },
        {
          "name": "c_p",
          "type": "uint256[2]"
        },
        {
          "name": "h",
          "type": "uint256[2]"
        },
        {
          "name": "k",
          "type": "uint256[2]"
        },
        {
          "name": "input",
          "type": "uint256[2]"
        }
      ],
      "name": "verifyTx",
      "outputs": [
        {
          "name": "r",
          "type": "bool"
        }
      ],
      "payable": false,
      "stateMutability": "nonpayable",
      "type": "function"
    },
    {
      "anonymous": false,
      "inputs": [
        {
          "indexed": false,
          "name": "s",
          "type": "string"
        }
      ],
      "name": "Verified",
      "type": "event"
    }
  ],
  "bytecode": "0x608060405234801561001057600080fd5b50611952806100206000396000f3fe608060405260043610610041576000357c0100000000000000000000000000000000000000000000000000000000900463ffffffff168063fe01ff6214610046575b600080fd5b34801561005257600080fd5b506102f7600480360361028081101561006a57600080fd5b8101908080604001906002806020026040519081016040528092919082600260200280828437600081840152601f19601f820116905080830192505050505050919291929080604001906002806020026040519081016040528092919082600260200280828437600081840152601f19601f82011690508083019250505050505091929192908060800190600280602002604051908101604052809291906000905b82821015610160578382604002016002806020026040519081016040528092919082600260200280828437600081840152601f19601f8201169050808301925050505050508152602001906001019061010c565b50505050919291929080604001906002806020026040519081016040528092919082600260200280828437600081840152601f19601f820116905080830192505050505050919291929080604001906002806020026040519081016040528092919082600260200280828437600081840152601f19601f820116905080830192505050505050919291929080604001906002806020026040519081016040528092919082600260200280828437600081840152601f19601f820116905080830192505050505050919291929080604001906002806020026040519081016040528092919082600260200280828437600081840152601f19601f820116905080830192505050505050919291929080604001906002806020026040519081016040528092919082600260200280828437600081840152601f19601f820116905080830192505050505050919291929080604001906002806020026040519081016040528092919082600260200280828437600081840152601f19601f8201169050808301925050505050509192919290505050610311565b604051808215151515815260200191505060405180910390f35b600061031b611733565b60408051908101604052808c600060028110151561033557fe5b602002015181526020018c600160028110151561034e57fe5b6020020151815250816000018190525060408051908101604052808b600060028110151561037857fe5b602002015181526020018b600160028110151561039157fe5b60200201518152508160200181905250604080519081016040528060408051908101604052808c60006002811015156103c657fe5b602002015160006002811015156103d957fe5b602002015181526020018c60006002811015156103f257fe5b6020020151600160028110151561040557fe5b6020020151815250815260200160408051908101604052808c600160028110151561042c57fe5b6020020151600060028110151561043f57fe5b602002015181526020018c600160028110151561045857fe5b6020020151600160028110151561046b57fe5b60200201518152508152508160400181905250604080519081016040528089600060028110151561049857fe5b602002015181526020018960016002811015156104b157fe5b6020020151815250816060018190525060408051908101604052808860006002811015156104db57fe5b602002015181526020018860016002811015156104f457fe5b60200201518152508160800181905250604080519081016040528087600060028110151561051e57fe5b6020020151815260200187600160028110151561053757fe5b60200201518152508160a00181905250604080519081016040528086600060028110151561056157fe5b6020020151815260200186600160028110151561057a57fe5b60200201518152508160e0018190525060408051908101604052808560006002811015156105a457fe5b602002015181526020018560016002811015156105bd57fe5b60200201518152508160c00181905250606060026040519080825280602002602001820160405280156105ff5781602001602082028038833980820191505090505b50905060008090505b600281101561064d57848160028110151561061f57fe5b6020020151828281518110151561063257fe5b90602001906020020181815250508080600101915050610608565b50600061065a828461070d565b14156106f9577f3f3cfdb26fb5f9f1786ab4f1a1f9cd4c0b5e726cbdfc26e495261731aad44e396040518080602001828103825260228152602001807f5472616e73616374696f6e207375636365737366756c6c79207665726966696581526020017f642e00000000000000000000000000000000000000000000000000000000000081525060400191505060405180910390a1600192505050610700565b6000925050505b9998505050505050505050565b60006107176117a9565b61071f61094d565b90508060e0015151600185510114151561073857600080fd5b610740611819565b6040805190810160405280600081526020016000815250905060008090505b85518110156107bf576107b0826107ab8560e001516001850181518110151561078457fe5b90602001906020020151898581518110151561079c57fe5b90602001906020020151610f8d565b611029565b9150808060010191505061075f565b506107e6818360e0015160008151811015156107d757fe5b90602001906020020151611029565b905061080f8460000151836000015161080287602001516110e6565b61080a611182565b61124c565b151561082057600192505050610947565b6108478260200151856040015161083a87606001516110e6565b610842611182565b61124c565b151561085857600292505050610947565b61087f846080015183604001516108728760a001516110e6565b61087a611182565b61124c565b151561089057600392505050610947565b6108dc8460c0015183606001516108c06108bb856108b68a600001518b60800151611029565b611029565b6110e6565b8560a001516108d287608001516110e6565b8960400151611358565b15156108ed57600492505050610947565b61092f6108fe828660000151611029565b85604001516109108760e001516110e6565b8560c0015161092289608001516110e6565b61092a611182565b611358565b151561094057600592505050610947565b6000925050505b92915050565b6109556117a9565b604080519081016040528060408051908101604052807f159cf421a941777af6515c0af7816ab037e7071c190f2b16e150f33c6c4d1ca981526020017f0dd8ab1dbc3a800b2e174104f7cbf58cfa132fff09be7e625a5a7d31bfb120d5815250815260200160408051908101604052807f2f872bb151bb13ef613e478ef1d75dc306ac7b418ae50b5943e1ae5a1797b55f81526020017f045da9e3010e16f0d3362dc258bfce10486517c303ea05ef29a15d7dd759a23a815250815250816000018190525060408051908101604052807f1a0f25304c28b391cdc1819441458ee1ef95cb410b0bf390ad8909bf23b6163781526020017f0de265491bb82fbc0fdf71a6b23114e4cdb5064c847d18882aac6a1c2d9f34908152508160200181905250604080519081016040528060408051908101604052807f155d7f6e402cc5e9571c2b41c8452731800603bc31f58ee89b4fc59a6ea968eb81526020017f12e78ffedc49a09af45013ba336089701eec33de9eda1fc3444252c9ca5346d8815250815260200160408051908101604052807f277e3b3678bd70fb4616b79521732e23c247b2c79cd86c4064f6e043809ed96a81526020017f2e2bba9aca3f756970adeaf2f42afa1321aff840922682872e190f59d0f5a96b8152508152508160400181905250604080519081016040528060408051908101604052807f1463aafe3b410999177088913f43a2262241c030d49fef37b55e091957bfadbf81526020017f09911cb810762ee195aa891b2e645a96d91c0891492155e855cc27a6feaa959a815250815260200160408051908101604052807f10166bf2a8e1462c12d611f0f94d9f8ac8f43742fe9636db548fff49b281816181526020017f25d656f460640f0e6ce563f8392a9e948a293e8a299760ba7accf8b91db77c84815250815250816060018190525060408051908101604052807f1e8693f42a57f0b786502d5b82551ee55364848089e6a1e584cdf449c5845c9081526020017f167d801e36b5e2298ed5abdda4a6b6cc3f41bbfc523058f4ccc4d715317c00ed8152508160800181905250604080519081016040528060408051908101604052807f0eb48ac3d6c54c52aebdcd460ed7cd1be6a01032756b3ad8ff60f07eba668f2081526020017f2f048e17c905570c7cbbe10ae04ff45176208905ad384ec4361ed2d7666a3c34815250815260200160408051908101604052807f1d70389b35eda9a62296f847ccaa9551c105220a455bd287375a919c8cbaf8d181526020017f0a9fe0c0e34f306a2c717aab80188e21ea6213d714e43db662737606325145898152508152508160a00181905250604080519081016040528060408051908101604052807f1e1c0b195b247d0dc77fa4d8c400e3182c08140134e82f8a545d98d600acf17d81526020017f18471e61cb8015dd55b440ee14e470542e9a39af6edcfd788014873024df9d16815250815260200160408051908101604052807f0d71ae736f0784dc795a0ac11edfb2286cdbc8db1701e58dd1010a7fbbf367fc81526020017ec9064b96d82b33e7c3705981ee67dd562e1816daa6efd818e9c2c65140a2168152508152508160c001819052506003604051908082528060200260200182016040528015610e2257816020015b610e0f611833565b815260200190600190039081610e075790505b508160e0018190525060408051908101604052807f065b65056a1bc440400bb2c3a5ea4aa04368439f19524f0f53aac0fa1bf49a3981526020017f05006067949a340ac1149e0a1aa0a8ffbd513570c43e000e43a85e0be1e446e98152508160e001516000815181101515610e9357fe5b9060200190602002018190525060408051908101604052807f2735f7bb2e0bb2215db233aeb595f6ee32bf43965fb3054cd3e1d52c2278363781526020017f0fb8a6439a2a48a674b2c9de678a543ea0dcab92158acb4b660931b75a2e075d8152508160e001516001815181101515610f0857fe5b9060200190602002018190525060408051908101604052807f2ba15669cf251f8485131c53679fcb8154bec0ad684bfadf867e9f8ddaa1df6781526020017f1b1dfa820b9173fc34ce7d9bdb6f4cf38d37ff6ebe46e318b1800f4450f8a0738152508160e001516002815181101515610f7d57fe5b9060200190602002018190525090565b610f95611819565b610f9d61184d565b8360000151816000600381101515610fb157fe5b6020020181815250508360200151816001600381101515610fce57fe5b60200201818152505082816002600381101515610fe757fe5b6020020181815250506000606083608084600060076107d05a03f19050806000811461101257611014565bfe5b5080151561102157600080fd5b505092915050565b611031611819565b611039611870565b836000015181600060048110151561104d57fe5b602002018181525050836020015181600160048110151561106a57fe5b602002018181525050826000015181600260048110151561108757fe5b60200201818152505082602001518160036004811015156110a457fe5b602002018181525050600060608360c084600060066107d05a03f1905080600081146110cf576110d1565bfe5b508015156110de57600080fd5b505092915050565b6110ee611819565b60007f30644e72e131a029b85045b68181585d97816a916871ca8d3c208c16d87cfd4790506000836000015114801561112b575060008360200151145b1561114f57604080519081016040528060008152602001600081525091505061117d565b60408051908101604052808460000151815260200182856020015181151561117357fe5b0683038152509150505b919050565b61118a611893565b604080519081016040528060408051908101604052807f198e9393920d483a7260bfb731fb5d25f1aa493335a9e71297e485b7aef312c281526020017f1800deef121f1e76426a00665e5c4479674322d4f75edadd46debd5cd992f6ed815250815260200160408051908101604052807f090689d0585ff075ec9e99ad690c3395bc4b313370b38ef355acdadcd122975b81526020017f12c85ea5db8c6deb4aab71808dcb408fe3d1e7690c43d37b4ce6cc0166fa7daa815250815250905090565b60006060600260405190808252806020026020018201604052801561128b57816020015b611278611833565b8152602001906001900390816112705790505b509050606060026040519080825280602002602001820160405280156112cb57816020015b6112b86118ba565b8152602001906001900390816112b05790505b509050868260008151811015156112de57fe5b90602001906020020181905250848260018151811015156112fb57fe5b906020019060200201819052508581600081518110151561131857fe5b906020019060200201819052508381600181518110151561133557fe5b9060200190602002018190525061134c82826114a0565b92505050949350505050565b60006060600360405190808252806020026020018201604052801561139757816020015b611384611833565b81526020019060019003908161137c5790505b509050606060036040519080825280602002602001820160405280156113d757816020015b6113c46118ba565b8152602001906001900390816113bc5790505b509050888260008151811015156113ea57fe5b906020019060200201819052508682600181518110151561140757fe5b906020019060200201819052508482600281518110151561142457fe5b906020019060200201819052508781600081518110151561144157fe5b906020019060200201819052508581600181518110151561145e57fe5b906020019060200201819052508381600281518110151561147b57fe5b9060200190602002018190525061149282826114a0565b925050509695505050505050565b6000815183511415156114b257600080fd5b60008351905060006006820290506060816040519080825280602002602001820160405280156114f15781602001602082028038833980820191505090505b50905060008090505b838110156116cf57868181518110151561151057fe5b9060200190602002015160000151826000600684020181518110151561153257fe5b9060200190602002018181525050868181518110151561154e57fe5b9060200190602002015160200151826001600684020181518110151561157057fe5b9060200190602002018181525050858181518110151561158c57fe5b906020019060200201516000015160006002811015156115a857fe5b602002015182600260068402018151811015156115c157fe5b906020019060200201818152505085818151811015156115dd57fe5b906020019060200201516000015160016002811015156115f957fe5b6020020151826003600684020181518110151561161257fe5b9060200190602002018181525050858181518110151561162e57fe5b9060200190602002015160200151600060028110151561164a57fe5b6020020151826004600684020181518110151561166357fe5b9060200190602002018181525050858181518110151561167f57fe5b9060200190602002015160200151600160028110151561169b57fe5b602002015182600560068402018151811015156116b457fe5b906020019060200201818152505080806001019150506114fa565b506116d86118e1565b60006020826020860260208601600060086107d05a03f1905080600081146116ff57611701565bfe5b5080151561170e57600080fd5b600082600060018110151561171f57fe5b602002015114159550505050505092915050565b61024060405190810160405280611748611833565b8152602001611755611833565b81526020016117626118ba565b815260200161176f611833565b815260200161177c611833565b8152602001611789611833565b8152602001611796611833565b81526020016117a3611833565b81525090565b610320604051908101604052806117be6118ba565b81526020016117cb611833565b81526020016117d86118ba565b81526020016117e56118ba565b81526020016117f2611833565b81526020016117ff6118ba565b815260200161180c6118ba565b8152602001606081525090565b604080519081016040528060008152602001600081525090565b604080519081016040528060008152602001600081525090565b606060405190810160405280600390602082028038833980820191505090505090565b608060405190810160405280600490602082028038833980820191505090505090565b6080604051908101604052806118a7611904565b81526020016118b4611904565b81525090565b6080604051908101604052806118ce611904565b81526020016118db611904565b81525090565b602060405190810160405280600190602082028038833980820191505090505090565b604080519081016040528060029060208202803883398082019150509050509056fea165627a7a72305820aa51a5d677637aa3292085f05a6066fe89b7683bf42cbf2d76204eff06a5d3d20029",
  "source": "pragma solidity >=0.4.21 <0.6.0;\r\n//pragma experimental ABIEncoderV2;\r\n\r\nimport \"openzeppelin-solidity/contracts/utils/Address.sol\";\r\nimport \"./Verifier.sol\";\r\nimport \"./ERC721Mintable.sol\";\r\n//  define a contract call to the zokrates generated solidity contract <Verifier> or <renamedVerifier>\r\n\r\ncontract SquareVerifier is Verifier{\r\n\r\n}\r\n\r\n//  define another contract named SolnSquareVerifier that inherits from your ERC721Mintable class\r\ncontract SolnSquareVerifier is  CustomERC721Token{\r\n    SquareVerifier public verifierContract;\r\n\r\n    constructor(address verifierAddress)\r\n          CustomERC721Token() \r\n          public\r\n          {\r\n              verifierContract = SquareVerifier(verifierAddress);\r\n\r\n          }     \r\n\r\n\r\n//  define a solutions struct that can hold an index & an address\r\nstruct Solutions{\r\n    uint tokenId;\r\n    address to;\r\n\r\n}\r\n\r\n// define an array of the above struct\r\nSolutions[] SolutionsArray;\r\n\r\n// define a mapping to store unique solutions submitted\r\nmapping (bytes32 => Solutions) private uniqueSolutions;\r\n\r\n\r\n//  Create an event to emit when a solution is added\r\n\r\nevent SolutionAdded(uint tokenid,address to);\r\n\r\n//  Create a function to add the solutions to the array and emit the event\r\n\r\nfunction AddSolution(address _to,uint _tokenId,bytes32 key)\r\n                    public\r\n{\r\n    Solutions memory _soln = Solutions({tokenId:_tokenId,to:_to});\r\n    SolutionsArray.push(_soln);\r\n    uniqueSolutions[key] = _soln;\r\n    emit SolutionAdded(_tokenId,_to);\r\n}\r\n\r\n\r\n\r\nfunction CanMintToken(address _to,uint _tokenId,\r\n            uint[2] memory a,\r\n            uint[2] memory a_p,\r\n            uint[2][2] memory b,\r\n            uint[2] memory b_p,\r\n            uint[2] memory c,\r\n            uint[2] memory c_p,\r\n            uint[2] memory h,\r\n            uint[2] memory k,\r\n            uint[2] memory input)\r\n            public\r\n            \r\n{\r\n     // check if solution is valid\r\n    require(verifierContract.verifyTx(a, a_p, b, b_p, c, c_p, h, k, input), \"solution not valid\");\r\n    bytes32 key = keccak256(abi.encodePacked(a,a_p,b,b_p,c,c_p,h,k,input));\r\n    require(uniqueSolutions[key].to == address(0),\"Solution already used.\");    \r\n       \r\n    AddSolution(_to,_tokenId,key);\r\n      \r\n}\r\n\r\n//  Create a function to mint new NFT only after the solution has been verified\r\n//  - make sure the solution is unique (has not been used before)\r\n//  - make sure you handle metadata as well as tokenSuplly\r\nfunction mintToken(address _to,uint _tokenId,\r\n            uint[2] memory a,\r\n            uint[2] memory a_p,\r\n            uint[2][2] memory b,\r\n            uint[2] memory b_p,\r\n            uint[2] memory c,\r\n            uint[2] memory c_p,\r\n            uint[2] memory h,\r\n            uint[2] memory k,\r\n            uint[2] memory input)\r\n            public\r\n{\r\n    bytes32 key = keccak256(abi.encodePacked(a,a_p,b,b_p,c,c_p,h,k,input));\r\n    require(uniqueSolutions[key].to == address(0),\"Solution already used.\");\r\n    require(verifierContract.verifyTx(a,a_p,b,b_p,c,c_p,h,k,input),\" solution not valid\");\r\n    \r\n    AddSolution(_to,_tokenId,key);\r\n    super.mint(_to,_tokenId);\r\n}\r\n\r\n\r\n\r\n}\r\n",
  "sourcePath": "C:/Users/Carlos/OneDrive/Documentos/Blockchain-Capstone/eth-contracts/contracts/SolnSquareVerifier.sol",
  "compiler": {
    "name": "solc",
    "version": "0.5.0+commit.1d4f565a.Emscripten.clang"
  },
  "schemaVersion": "3.0.16",
  "updatedAt": "2019-10-17T02:27:10.657Z",
  "devdoc": {
    "methods": {}
  },
  "userdoc": {
    "methods": {}
  }
}